{
  "_format": "hh-sol-artifact-1",
  "contractName": "GithubInterepNFT",
  "sourceName": "contracts/GithubInterepNFT.sol",
  "abi": [
    {
      "inputs": [
        {
          "internalType": "address",
          "name": "interepAddress",
          "type": "address"
        }
      ],
      "stateMutability": "nonpayable",
      "type": "constructor"
    },
    {
      "anonymous": false,
      "inputs": [
        {
          "indexed": true,
          "internalType": "address",
          "name": "owner",
          "type": "address"
        },
        {
          "indexed": true,
          "internalType": "address",
          "name": "approved",
          "type": "address"
        },
        {
          "indexed": true,
          "internalType": "uint256",
          "name": "tokenId",
          "type": "uint256"
        }
      ],
      "name": "Approval",
      "type": "event"
    },
    {
      "anonymous": false,
      "inputs": [
        {
          "indexed": true,
          "internalType": "address",
          "name": "owner",
          "type": "address"
        },
        {
          "indexed": true,
          "internalType": "address",
          "name": "operator",
          "type": "address"
        },
        {
          "indexed": false,
          "internalType": "bool",
          "name": "approved",
          "type": "bool"
        }
      ],
      "name": "ApprovalForAll",
      "type": "event"
    },
    {
      "anonymous": false,
      "inputs": [
        {
          "indexed": true,
          "internalType": "address",
          "name": "from",
          "type": "address"
        },
        {
          "indexed": true,
          "internalType": "address",
          "name": "to",
          "type": "address"
        },
        {
          "indexed": true,
          "internalType": "uint256",
          "name": "tokenId",
          "type": "uint256"
        }
      ],
      "name": "Transfer",
      "type": "event"
    },
    {
      "inputs": [
        {
          "internalType": "address",
          "name": "to",
          "type": "address"
        },
        {
          "internalType": "uint256",
          "name": "tokenId",
          "type": "uint256"
        }
      ],
      "name": "approve",
      "outputs": [],
      "stateMutability": "nonpayable",
      "type": "function"
    },
    {
      "inputs": [
        {
          "internalType": "address",
          "name": "owner",
          "type": "address"
        }
      ],
      "name": "balanceOf",
      "outputs": [
        {
          "internalType": "uint256",
          "name": "",
          "type": "uint256"
        }
      ],
      "stateMutability": "view",
      "type": "function"
    },
    {
      "inputs": [
        {
          "internalType": "uint256",
          "name": "tokenId",
          "type": "uint256"
        }
      ],
      "name": "getApproved",
      "outputs": [
        {
          "internalType": "address",
          "name": "",
          "type": "address"
        }
      ],
      "stateMutability": "view",
      "type": "function"
    },
    {
      "inputs": [],
      "name": "interep",
      "outputs": [
        {
          "internalType": "contract IInterep",
          "name": "",
          "type": "address"
        }
      ],
      "stateMutability": "view",
      "type": "function"
    },
    {
      "inputs": [
        {
          "internalType": "address",
          "name": "owner",
          "type": "address"
        },
        {
          "internalType": "address",
          "name": "operator",
          "type": "address"
        }
      ],
      "name": "isApprovedForAll",
      "outputs": [
        {
          "internalType": "bool",
          "name": "",
          "type": "bool"
        }
      ],
      "stateMutability": "view",
      "type": "function"
    },
    {
      "inputs": [
        {
          "internalType": "uint256",
          "name": "nullifierHash",
          "type": "uint256"
        },
        {
          "internalType": "uint256[8]",
          "name": "proof",
          "type": "uint256[8]"
        }
      ],
      "name": "mint",
      "outputs": [],
      "stateMutability": "nonpayable",
      "type": "function"
    },
    {
      "inputs": [],
      "name": "name",
      "outputs": [
        {
          "internalType": "string",
          "name": "",
          "type": "string"
        }
      ],
      "stateMutability": "view",
      "type": "function"
    },
    {
      "inputs": [
        {
          "internalType": "uint256",
          "name": "tokenId",
          "type": "uint256"
        }
      ],
      "name": "ownerOf",
      "outputs": [
        {
          "internalType": "address",
          "name": "",
          "type": "address"
        }
      ],
      "stateMutability": "view",
      "type": "function"
    },
    {
      "inputs": [
        {
          "internalType": "address",
          "name": "from",
          "type": "address"
        },
        {
          "internalType": "address",
          "name": "to",
          "type": "address"
        },
        {
          "internalType": "uint256",
          "name": "tokenId",
          "type": "uint256"
        }
      ],
      "name": "safeTransferFrom",
      "outputs": [],
      "stateMutability": "nonpayable",
      "type": "function"
    },
    {
      "inputs": [
        {
          "internalType": "address",
          "name": "from",
          "type": "address"
        },
        {
          "internalType": "address",
          "name": "to",
          "type": "address"
        },
        {
          "internalType": "uint256",
          "name": "tokenId",
          "type": "uint256"
        },
        {
          "internalType": "bytes",
          "name": "_data",
          "type": "bytes"
        }
      ],
      "name": "safeTransferFrom",
      "outputs": [],
      "stateMutability": "nonpayable",
      "type": "function"
    },
    {
      "inputs": [
        {
          "internalType": "address",
          "name": "operator",
          "type": "address"
        },
        {
          "internalType": "bool",
          "name": "approved",
          "type": "bool"
        }
      ],
      "name": "setApprovalForAll",
      "outputs": [],
      "stateMutability": "nonpayable",
      "type": "function"
    },
    {
      "inputs": [
        {
          "internalType": "bytes4",
          "name": "interfaceId",
          "type": "bytes4"
        }
      ],
      "name": "supportsInterface",
      "outputs": [
        {
          "internalType": "bool",
          "name": "",
          "type": "bool"
        }
      ],
      "stateMutability": "view",
      "type": "function"
    },
    {
      "inputs": [],
      "name": "symbol",
      "outputs": [
        {
          "internalType": "string",
          "name": "",
          "type": "string"
        }
      ],
      "stateMutability": "view",
      "type": "function"
    },
    {
      "inputs": [
        {
          "internalType": "uint256",
          "name": "tokenId",
          "type": "uint256"
        }
      ],
      "name": "tokenURI",
      "outputs": [
        {
          "internalType": "string",
          "name": "",
          "type": "string"
        }
      ],
      "stateMutability": "view",
      "type": "function"
    },
    {
      "inputs": [
        {
          "internalType": "address",
          "name": "from",
          "type": "address"
        },
        {
          "internalType": "address",
          "name": "to",
          "type": "address"
        },
        {
          "internalType": "uint256",
          "name": "tokenId",
          "type": "uint256"
        }
      ],
      "name": "transferFrom",
      "outputs": [],
      "stateMutability": "nonpayable",
      "type": "function"
    }
  ],
  "bytecode": "0x60806040523480156200001157600080fd5b5060405162002c0b38038062002c0b8339818101604052810190620000379190620001e6565b6040518060400160405280600d81526020017f496e7465726570476974687562000000000000000000000000000000000000008152506040518060400160405280600481526020017f49524748000000000000000000000000000000000000000000000000000000008152508160009080519060200190620000bb9291906200011f565b508060019080519060200190620000d49291906200011f565b50505080600660006101000a81548173ffffffffffffffffffffffffffffffffffffffff021916908373ffffffffffffffffffffffffffffffffffffffff16021790555050620002c5565b8280546200012d9062000246565b90600052602060002090601f0160209004810192826200015157600085556200019d565b82601f106200016c57805160ff19168380011785556200019d565b828001600101855582156200019d579182015b828111156200019c5782518255916020019190600101906200017f565b5b509050620001ac9190620001b0565b5090565b5b80821115620001cb576000816000905550600101620001b1565b5090565b600081519050620001e081620002ab565b92915050565b600060208284031215620001f957600080fd5b60006200020984828501620001cf565b91505092915050565b60006200021f8262000226565b9050919050565b600073ffffffffffffffffffffffffffffffffffffffff82169050919050565b600060028204905060018216806200025f57607f821691505b602082108114156200027657620002756200027c565b5b50919050565b7f4e487b7100000000000000000000000000000000000000000000000000000000600052602260045260246000fd5b620002b68162000212565b8114620002c257600080fd5b50565b61293680620002d56000396000f3fe608060405234801561001057600080fd5b50600436106100f55760003560e01c80636352211e11610097578063a22cb46511610066578063a22cb46514610284578063b88d4fde146102a0578063c87b56dd146102bc578063e985e9c5146102ec576100f5565b80636352211e146101ea57806370a082311461021a5780637aa095761461024a57806395d89b4114610266576100f5565b8063095ea7b3116100d3578063095ea7b31461017857806323b872dd1461019457806342842e0e146101b05780635d0a8dc2146101cc576100f5565b806301ffc9a7146100fa57806306fdde031461012a578063081812fc14610148575b600080fd5b610114600480360381019061010f9190611a2f565b61031c565b6040516101219190611e5b565b60405180910390f35b6101326103fe565b60405161013f9190611e91565b60405180910390f35b610162600480360381019061015d9190611a81565b610490565b60405161016f9190611df4565b60405180910390f35b610192600480360381019061018d91906119f3565b610515565b005b6101ae60048036038101906101a991906118ed565b61062d565b005b6101ca60048036038101906101c591906118ed565b61068d565b005b6101d46106ad565b6040516101e19190611e76565b60405180910390f35b61020460048036038101906101ff9190611a81565b6106d3565b6040516102119190611df4565b60405180910390f35b610234600480360381019061022f9190611888565b610785565b6040516102419190612073565b60405180910390f35b610264600480360381019061025f9190611aaa565b61083d565b005b61026e61094d565b60405161027b9190611e91565b60405180910390f35b61029e600480360381019061029991906119b7565b6109df565b005b6102ba60048036038101906102b5919061193c565b6109f5565b005b6102d660048036038101906102d19190611a81565b610a57565b6040516102e39190611e91565b60405180910390f35b610306600480360381019061030191906118b1565b610afe565b6040516103139190611e5b565b60405180910390f35b60007f80ac58cd000000000000000000000000000000000000000000000000000000007bffffffffffffffffffffffffffffffffffffffffffffffffffffffff1916827bffffffffffffffffffffffffffffffffffffffffffffffffffffffff191614806103e757507f5b5e139f000000000000000000000000000000000000000000000000000000007bffffffffffffffffffffffffffffffffffffffffffffffffffffffff1916827bffffffffffffffffffffffffffffffffffffffffffffffffffffffff1916145b806103f757506103f682610b92565b5b9050919050565b60606000805461040d9061231a565b80601f01602080910402602001604051908101604052809291908181526020018280546104399061231a565b80156104865780601f1061045b57610100808354040283529160200191610486565b820191906000526020600020905b81548152906001019060200180831161046957829003601f168201915b5050505050905090565b600061049b82610bfc565b6104da576040517f08c379a00000000000000000000000000000000000000000000000000000000081526004016104d190611ff3565b60405180910390fd5b6004600083815260200190815260200160002060009054906101000a900473ffffffffffffffffffffffffffffffffffffffff169050919050565b6000610520826106d3565b90508073ffffffffffffffffffffffffffffffffffffffff168373ffffffffffffffffffffffffffffffffffffffff161415610591576040517f08c379a000000000000000000000000000000000000000000000000000000000815260040161058890612033565b60405180910390fd5b8073ffffffffffffffffffffffffffffffffffffffff166105b0610c68565b73ffffffffffffffffffffffffffffffffffffffff1614806105df57506105de816105d9610c68565b610afe565b5b61061e576040517f08c379a000000000000000000000000000000000000000000000000000000000815260040161061590611f73565b60405180910390fd5b6106288383610c70565b505050565b61063e610638610c68565b82610d29565b61067d576040517f08c379a000000000000000000000000000000000000000000000000000000000815260040161067490612053565b60405180910390fd5b610688838383610e07565b505050565b6106a8838383604051806020016040528060008152506109f5565b505050565b600660009054906101000a900473ffffffffffffffffffffffffffffffffffffffff1681565b6000806002600084815260200190815260200160002060009054906101000a900473ffffffffffffffffffffffffffffffffffffffff169050600073ffffffffffffffffffffffffffffffffffffffff168173ffffffffffffffffffffffffffffffffffffffff16141561077c576040517f08c379a000000000000000000000000000000000000000000000000000000000815260040161077390611fb3565b60405180910390fd5b80915050919050565b60008073ffffffffffffffffffffffffffffffffffffffff168273ffffffffffffffffffffffffffffffffffffffff1614156107f6576040517f08c379a00000000000000000000000000000000000000000000000000000000081526004016107ed90611f93565b60405180910390fd5b600360008373ffffffffffffffffffffffffffffffffffffffff1673ffffffffffffffffffffffffffffffffffffffff168152602001908152602001600020549050919050565b60007f6769746875622d6e6674000000000000000000000000000000000000000000009050600660009054906101000a900473ffffffffffffffffffffffffffffffffffffffff1673ffffffffffffffffffffffffffffffffffffffff16636673e8497f2bc2708a1dc737fb2a7176a8aebb222070b812f871c678403d9f393fdc07988583867f2bc2708a1dc737fb2a7176a8aebb222070b812f871c678403d9f393fdc079885876040518663ffffffff1660e01b815260040161090595949392919061208e565b600060405180830381600087803b15801561091f57600080fd5b505af1158015610933573d6000803e3d6000fd5b50505050610948610942610c68565b8461106e565b505050565b60606001805461095c9061231a565b80601f01602080910402602001604051908101604052809291908181526020018280546109889061231a565b80156109d55780601f106109aa576101008083540402835291602001916109d5565b820191906000526020600020905b8154815290600101906020018083116109b857829003601f168201915b5050505050905090565b6109f16109ea610c68565b8383611248565b5050565b610a06610a00610c68565b83610d29565b610a45576040517f08c379a0000000000000000000000000000000000000000000000000000000008152600401610a3c90612053565b60405180910390fd5b610a51848484846113b5565b50505050565b6060610a6282610bfc565b610aa1576040517f08c379a0000000000000000000000000000000000000000000000000000000008152600401610a9890612013565b60405180910390fd5b6000610aab611411565b90506000815111610acb5760405180602001604052806000815250610af6565b80610ad584611428565b604051602001610ae6929190611dd0565b6040516020818303038152906040525b915050919050565b6000600560008473ffffffffffffffffffffffffffffffffffffffff1673ffffffffffffffffffffffffffffffffffffffff16815260200190815260200160002060008373ffffffffffffffffffffffffffffffffffffffff1673ffffffffffffffffffffffffffffffffffffffff16815260200190815260200160002060009054906101000a900460ff16905092915050565b60007f01ffc9a7000000000000000000000000000000000000000000000000000000007bffffffffffffffffffffffffffffffffffffffffffffffffffffffff1916827bffffffffffffffffffffffffffffffffffffffffffffffffffffffff1916149050919050565b60008073ffffffffffffffffffffffffffffffffffffffff166002600084815260200190815260200160002060009054906101000a900473ffffffffffffffffffffffffffffffffffffffff1673ffffffffffffffffffffffffffffffffffffffff1614159050919050565b600033905090565b816004600083815260200190815260200160002060006101000a81548173ffffffffffffffffffffffffffffffffffffffff021916908373ffffffffffffffffffffffffffffffffffffffff160217905550808273ffffffffffffffffffffffffffffffffffffffff16610ce3836106d3565b73ffffffffffffffffffffffffffffffffffffffff167f8c5be1e5ebec7d5bd14f71427d1e84f3dd0314c0f7b2291e5b200ac8c7c3b92560405160405180910390a45050565b6000610d3482610bfc565b610d73576040517f08c379a0000000000000000000000000000000000000000000000000000000008152600401610d6a90611f53565b60405180910390fd5b6000610d7e836106d3565b90508073ffffffffffffffffffffffffffffffffffffffff168473ffffffffffffffffffffffffffffffffffffffff161480610ded57508373ffffffffffffffffffffffffffffffffffffffff16610dd584610490565b73ffffffffffffffffffffffffffffffffffffffff16145b80610dfe5750610dfd8185610afe565b5b91505092915050565b8273ffffffffffffffffffffffffffffffffffffffff16610e27826106d3565b73ffffffffffffffffffffffffffffffffffffffff1614610e7d576040517f08c379a0000000000000000000000000000000000000000000000000000000008152600401610e7490611ed3565b60405180910390fd5b600073ffffffffffffffffffffffffffffffffffffffff168273ffffffffffffffffffffffffffffffffffffffff161415610eed576040517f08c379a0000000000000000000000000000000000000000000000000000000008152600401610ee490611f13565b60405180910390fd5b610ef88383836115d5565b610f03600082610c70565b6001600360008573ffffffffffffffffffffffffffffffffffffffff1673ffffffffffffffffffffffffffffffffffffffff1681526020019081526020016000206000828254610f539190612202565b925050819055506001600360008473ffffffffffffffffffffffffffffffffffffffff1673ffffffffffffffffffffffffffffffffffffffff1681526020019081526020016000206000828254610faa919061217b565b92505081905550816002600083815260200190815260200160002060006101000a81548173ffffffffffffffffffffffffffffffffffffffff021916908373ffffffffffffffffffffffffffffffffffffffff160217905550808273ffffffffffffffffffffffffffffffffffffffff168473ffffffffffffffffffffffffffffffffffffffff167fddf252ad1be2c89b69c2b068fc378daa952ba7f163c4a11628f55a4df523b3ef60405160405180910390a46110698383836115da565b505050565b600073ffffffffffffffffffffffffffffffffffffffff168273ffffffffffffffffffffffffffffffffffffffff1614156110de576040517f08c379a00000000000000000000000000000000000000000000000000000000081526004016110d590611fd3565b60405180910390fd5b6110e781610bfc565b15611127576040517f08c379a000000000000000000000000000000000000000000000000000000000815260040161111e90611ef3565b60405180910390fd5b611133600083836115d5565b6001600360008473ffffffffffffffffffffffffffffffffffffffff1673ffffffffffffffffffffffffffffffffffffffff1681526020019081526020016000206000828254611183919061217b565b92505081905550816002600083815260200190815260200160002060006101000a81548173ffffffffffffffffffffffffffffffffffffffff021916908373ffffffffffffffffffffffffffffffffffffffff160217905550808273ffffffffffffffffffffffffffffffffffffffff16600073ffffffffffffffffffffffffffffffffffffffff167fddf252ad1be2c89b69c2b068fc378daa952ba7f163c4a11628f55a4df523b3ef60405160405180910390a4611244600083836115da565b5050565b8173ffffffffffffffffffffffffffffffffffffffff168373ffffffffffffffffffffffffffffffffffffffff1614156112b7576040517f08c379a00000000000000000000000000000000000000000000000000000000081526004016112ae90611f33565b60405180910390fd5b80600560008573ffffffffffffffffffffffffffffffffffffffff1673ffffffffffffffffffffffffffffffffffffffff16815260200190815260200160002060008473ffffffffffffffffffffffffffffffffffffffff1673ffffffffffffffffffffffffffffffffffffffff16815260200190815260200160002060006101000a81548160ff0219169083151502179055508173ffffffffffffffffffffffffffffffffffffffff168373ffffffffffffffffffffffffffffffffffffffff167f17307eab39ab6107e8899845ad3d59bd9653f200f220920489ca2b5937696c31836040516113a89190611e5b565b60405180910390a3505050565b6113c0848484610e07565b6113cc848484846115df565b61140b576040517f08c379a000000000000000000000000000000000000000000000000000000000815260040161140290611eb3565b60405180910390fd5b50505050565b606060405180602001604052806000815250905090565b60606000821415611470576040518060400160405280600181526020017f300000000000000000000000000000000000000000000000000000000000000081525090506115d0565b600082905060005b600082146114a257808061148b9061237d565b915050600a8261149b91906121d1565b9150611478565b60008167ffffffffffffffff8111156114e4577f4e487b7100000000000000000000000000000000000000000000000000000000600052604160045260246000fd5b6040519080825280601f01601f1916602001820160405280156115165781602001600182028036833780820191505090505b5090505b600085146115c95760018261152f9190612202565b9150600a8561153e91906123c6565b603061154a919061217b565b60f81b818381518110611586577f4e487b7100000000000000000000000000000000000000000000000000000000600052603260045260246000fd5b60200101907effffffffffffffffffffffffffffffffffffffffffffffffffffffffffffff1916908160001a905350600a856115c291906121d1565b945061151a565b8093505050505b919050565b505050565b505050565b60006116008473ffffffffffffffffffffffffffffffffffffffff16611776565b15611769578373ffffffffffffffffffffffffffffffffffffffff1663150b7a02611629610c68565b8786866040518563ffffffff1660e01b815260040161164b9493929190611e0f565b602060405180830381600087803b15801561166557600080fd5b505af192505050801561169657506040513d601f19601f820116820180604052508101906116939190611a58565b60015b611719573d80600081146116c6576040519150601f19603f3d011682016040523d82523d6000602084013e6116cb565b606091505b50600081511415611711576040517f08c379a000000000000000000000000000000000000000000000000000000000815260040161170890611eb3565b60405180910390fd5b805181602001fd5b63150b7a0260e01b7bffffffffffffffffffffffffffffffffffffffffffffffffffffffff1916817bffffffffffffffffffffffffffffffffffffffffffffffffffffffff19161491505061176e565b600190505b949350505050565b6000808273ffffffffffffffffffffffffffffffffffffffff163b119050919050565b60006117ac6117a784612107565b6120e2565b9050828152602081018484840111156117c457600080fd5b6117cf8482856122d8565b509392505050565b6000813590506117e6816128a4565b92915050565b60008190508260206008028201111561180457600080fd5b92915050565b600081359050611819816128bb565b92915050565b60008135905061182e816128d2565b92915050565b600081519050611843816128d2565b92915050565b600082601f83011261185a57600080fd5b813561186a848260208601611799565b91505092915050565b600081359050611882816128e9565b92915050565b60006020828403121561189a57600080fd5b60006118a8848285016117d7565b91505092915050565b600080604083850312156118c457600080fd5b60006118d2858286016117d7565b92505060206118e3858286016117d7565b9150509250929050565b60008060006060848603121561190257600080fd5b6000611910868287016117d7565b9350506020611921868287016117d7565b925050604061193286828701611873565b9150509250925092565b6000806000806080858703121561195257600080fd5b6000611960878288016117d7565b9450506020611971878288016117d7565b935050604061198287828801611873565b925050606085013567ffffffffffffffff81111561199f57600080fd5b6119ab87828801611849565b91505092959194509250565b600080604083850312156119ca57600080fd5b60006119d8858286016117d7565b92505060206119e98582860161180a565b9150509250929050565b60008060408385031215611a0657600080fd5b6000611a14858286016117d7565b9250506020611a2585828601611873565b9150509250929050565b600060208284031215611a4157600080fd5b6000611a4f8482850161181f565b91505092915050565b600060208284031215611a6a57600080fd5b6000611a7884828501611834565b91505092915050565b600060208284031215611a9357600080fd5b6000611aa184828501611873565b91505092915050565b6000806101208385031215611abe57600080fd5b6000611acc85828601611873565b9250506020611add858286016117ec565b9150509250929050565b611af081612236565b82525050565b611b0361010083836122d8565b5050565b611b1081612248565b82525050565b611b1f81612254565b82525050565b6000611b3082612138565b611b3a818561214e565b9350611b4a8185602086016122e7565b611b53816124b3565b840191505092915050565b611b67816122b4565b82525050565b6000611b7882612143565b611b82818561215f565b9350611b928185602086016122e7565b611b9b816124b3565b840191505092915050565b6000611bb182612143565b611bbb8185612170565b9350611bcb8185602086016122e7565b80840191505092915050565b6000611be460328361215f565b9150611bef826124c4565b604082019050919050565b6000611c0760258361215f565b9150611c1282612513565b604082019050919050565b6000611c2a601c8361215f565b9150611c3582612562565b602082019050919050565b6000611c4d60248361215f565b9150611c588261258b565b604082019050919050565b6000611c7060198361215f565b9150611c7b826125da565b602082019050919050565b6000611c93602c8361215f565b9150611c9e82612603565b604082019050919050565b6000611cb660388361215f565b9150611cc182612652565b604082019050919050565b6000611cd9602a8361215f565b9150611ce4826126a1565b604082019050919050565b6000611cfc60298361215f565b9150611d07826126f0565b604082019050919050565b6000611d1f60208361215f565b9150611d2a8261273f565b602082019050919050565b6000611d42602c8361215f565b9150611d4d82612768565b604082019050919050565b6000611d65602f8361215f565b9150611d70826127b7565b604082019050919050565b6000611d8860218361215f565b9150611d9382612806565b604082019050919050565b6000611dab60318361215f565b9150611db682612855565b604082019050919050565b611dca816122aa565b82525050565b6000611ddc8285611ba6565b9150611de88284611ba6565b91508190509392505050565b6000602082019050611e096000830184611ae7565b92915050565b6000608082019050611e246000830187611ae7565b611e316020830186611ae7565b611e3e6040830185611dc1565b8181036060830152611e508184611b25565b905095945050505050565b6000602082019050611e706000830184611b07565b92915050565b6000602082019050611e8b6000830184611b5e565b92915050565b60006020820190508181036000830152611eab8184611b6d565b905092915050565b60006020820190508181036000830152611ecc81611bd7565b9050919050565b60006020820190508181036000830152611eec81611bfa565b9050919050565b60006020820190508181036000830152611f0c81611c1d565b9050919050565b60006020820190508181036000830152611f2c81611c40565b9050919050565b60006020820190508181036000830152611f4c81611c63565b9050919050565b60006020820190508181036000830152611f6c81611c86565b9050919050565b60006020820190508181036000830152611f8c81611ca9565b9050919050565b60006020820190508181036000830152611fac81611ccc565b9050919050565b60006020820190508181036000830152611fcc81611cef565b9050919050565b60006020820190508181036000830152611fec81611d12565b9050919050565b6000602082019050818103600083015261200c81611d35565b9050919050565b6000602082019050818103600083015261202c81611d58565b9050919050565b6000602082019050818103600083015261204c81611d7b565b9050919050565b6000602082019050818103600083015261206c81611d9e565b9050919050565b60006020820190506120886000830184611dc1565b92915050565b6000610180820190506120a46000830188611dc1565b6120b16020830187611b16565b6120be6040830186611dc1565b6120cb6060830185611dc1565b6120d86080830184611af6565b9695505050505050565b60006120ec6120fd565b90506120f8828261234c565b919050565b6000604051905090565b600067ffffffffffffffff82111561212257612121612484565b5b61212b826124b3565b9050602081019050919050565b600081519050919050565b600081519050919050565b600082825260208201905092915050565b600082825260208201905092915050565b600081905092915050565b6000612186826122aa565b9150612191836122aa565b9250827fffffffffffffffffffffffffffffffffffffffffffffffffffffffffffffffff038211156121c6576121c56123f7565b5b828201905092915050565b60006121dc826122aa565b91506121e7836122aa565b9250826121f7576121f6612426565b5b828204905092915050565b600061220d826122aa565b9150612218836122aa565b92508282101561222b5761222a6123f7565b5b828203905092915050565b60006122418261228a565b9050919050565b60008115159050919050565b6000819050919050565b60007fffffffff0000000000000000000000000000000000000000000000000000000082169050919050565b600073ffffffffffffffffffffffffffffffffffffffff82169050919050565b6000819050919050565b60006122bf826122c6565b9050919050565b60006122d18261228a565b9050919050565b82818337600083830152505050565b60005b838110156123055780820151818401526020810190506122ea565b83811115612314576000848401525b50505050565b6000600282049050600182168061233257607f821691505b6020821081141561234657612345612455565b5b50919050565b612355826124b3565b810181811067ffffffffffffffff8211171561237457612373612484565b5b80604052505050565b6000612388826122aa565b91507fffffffffffffffffffffffffffffffffffffffffffffffffffffffffffffffff8214156123bb576123ba6123f7565b5b600182019050919050565b60006123d1826122aa565b91506123dc836122aa565b9250826123ec576123eb612426565b5b828206905092915050565b7f4e487b7100000000000000000000000000000000000000000000000000000000600052601160045260246000fd5b7f4e487b7100000000000000000000000000000000000000000000000000000000600052601260045260246000fd5b7f4e487b7100000000000000000000000000000000000000000000000000000000600052602260045260246000fd5b7f4e487b7100000000000000000000000000000000000000000000000000000000600052604160045260246000fd5b6000601f19601f8301169050919050565b7f4552433732313a207472616e7366657220746f206e6f6e20455243373231526560008201527f63656976657220696d706c656d656e7465720000000000000000000000000000602082015250565b7f4552433732313a207472616e736665722066726f6d20696e636f72726563742060008201527f6f776e6572000000000000000000000000000000000000000000000000000000602082015250565b7f4552433732313a20746f6b656e20616c7265616479206d696e74656400000000600082015250565b7f4552433732313a207472616e7366657220746f20746865207a65726f2061646460008201527f7265737300000000000000000000000000000000000000000000000000000000602082015250565b7f4552433732313a20617070726f766520746f2063616c6c657200000000000000600082015250565b7f4552433732313a206f70657261746f7220717565727920666f72206e6f6e657860008201527f697374656e7420746f6b656e0000000000000000000000000000000000000000602082015250565b7f4552433732313a20617070726f76652063616c6c6572206973206e6f74206f7760008201527f6e6572206e6f7220617070726f76656420666f7220616c6c0000000000000000602082015250565b7f4552433732313a2062616c616e636520717565727920666f7220746865207a6560008201527f726f206164647265737300000000000000000000000000000000000000000000602082015250565b7f4552433732313a206f776e657220717565727920666f72206e6f6e657869737460008201527f656e7420746f6b656e0000000000000000000000000000000000000000000000602082015250565b7f4552433732313a206d696e7420746f20746865207a65726f2061646472657373600082015250565b7f4552433732313a20617070726f76656420717565727920666f72206e6f6e657860008201527f697374656e7420746f6b656e0000000000000000000000000000000000000000602082015250565b7f4552433732314d657461646174613a2055524920717565727920666f72206e6f60008201527f6e6578697374656e7420746f6b656e0000000000000000000000000000000000602082015250565b7f4552433732313a20617070726f76616c20746f2063757272656e74206f776e6560008201527f7200000000000000000000000000000000000000000000000000000000000000602082015250565b7f4552433732313a207472616e736665722063616c6c6572206973206e6f74206f60008201527f776e6572206e6f7220617070726f766564000000000000000000000000000000602082015250565b6128ad81612236565b81146128b857600080fd5b50565b6128c481612248565b81146128cf57600080fd5b50565b6128db8161225e565b81146128e657600080fd5b50565b6128f2816122aa565b81146128fd57600080fd5b5056fea264697066735822122015e7acd579784ab92f2174a454893d7c27f08474aa5d1264a44d4bf094b5dcaf64736f6c63430008040033",
  "linkReferences": {},
  "deployedLinkReferences": {}
}