{
  "_format": "hh-sol-artifact-1",
  "contractName": "InterepNFT",
  "sourceName": "contracts/InterepNFT.sol",
  "abi": [
    {
      "inputs": [
        {
          "internalType": "address",
          "name": "interepAddress",
          "type": "address"
        }
      ],
      "stateMutability": "nonpayable",
      "type": "constructor"
    },
    {
      "anonymous": false,
      "inputs": [
        {
          "indexed": true,
          "internalType": "address",
          "name": "owner",
          "type": "address"
        },
        {
          "indexed": true,
          "internalType": "address",
          "name": "approved",
          "type": "address"
        },
        {
          "indexed": true,
          "internalType": "uint256",
          "name": "tokenId",
          "type": "uint256"
        }
      ],
      "name": "Approval",
      "type": "event"
    },
    {
      "anonymous": false,
      "inputs": [
        {
          "indexed": true,
          "internalType": "address",
          "name": "owner",
          "type": "address"
        },
        {
          "indexed": true,
          "internalType": "address",
          "name": "operator",
          "type": "address"
        },
        {
          "indexed": false,
          "internalType": "bool",
          "name": "approved",
          "type": "bool"
        }
      ],
      "name": "ApprovalForAll",
      "type": "event"
    },
    {
      "anonymous": false,
      "inputs": [
        {
          "indexed": true,
          "internalType": "address",
          "name": "from",
          "type": "address"
        },
        {
          "indexed": true,
          "internalType": "address",
          "name": "to",
          "type": "address"
        },
        {
          "indexed": true,
          "internalType": "uint256",
          "name": "tokenId",
          "type": "uint256"
        }
      ],
      "name": "Transfer",
      "type": "event"
    },
    {
      "inputs": [
        {
          "internalType": "address",
          "name": "to",
          "type": "address"
        },
        {
          "internalType": "uint256",
          "name": "tokenId",
          "type": "uint256"
        }
      ],
      "name": "approve",
      "outputs": [],
      "stateMutability": "nonpayable",
      "type": "function"
    },
    {
      "inputs": [
        {
          "internalType": "address",
          "name": "owner",
          "type": "address"
        }
      ],
      "name": "balanceOf",
      "outputs": [
        {
          "internalType": "uint256",
          "name": "",
          "type": "uint256"
        }
      ],
      "stateMutability": "view",
      "type": "function"
    },
    {
      "inputs": [
        {
          "internalType": "uint256",
          "name": "tokenId",
          "type": "uint256"
        }
      ],
      "name": "getApproved",
      "outputs": [
        {
          "internalType": "address",
          "name": "",
          "type": "address"
        }
      ],
      "stateMutability": "view",
      "type": "function"
    },
    {
      "inputs": [],
      "name": "interep",
      "outputs": [
        {
          "internalType": "contract IInterep",
          "name": "",
          "type": "address"
        }
      ],
      "stateMutability": "view",
      "type": "function"
    },
    {
      "inputs": [
        {
          "internalType": "address",
          "name": "owner",
          "type": "address"
        },
        {
          "internalType": "address",
          "name": "operator",
          "type": "address"
        }
      ],
      "name": "isApprovedForAll",
      "outputs": [
        {
          "internalType": "bool",
          "name": "",
          "type": "bool"
        }
      ],
      "stateMutability": "view",
      "type": "function"
    },
    {
      "inputs": [
        {
          "internalType": "uint256",
          "name": "groupId",
          "type": "uint256"
        },
        {
          "internalType": "bytes32",
          "name": "signal",
          "type": "bytes32"
        },
        {
          "internalType": "uint256",
          "name": "nullifierHash",
          "type": "uint256"
        },
        {
          "internalType": "uint256[8]",
          "name": "proof",
          "type": "uint256[8]"
        }
      ],
      "name": "mint",
      "outputs": [],
      "stateMutability": "nonpayable",
      "type": "function"
    },
    {
      "inputs": [],
      "name": "name",
      "outputs": [
        {
          "internalType": "string",
          "name": "",
          "type": "string"
        }
      ],
      "stateMutability": "view",
      "type": "function"
    },
    {
      "inputs": [
        {
          "internalType": "uint256",
          "name": "tokenId",
          "type": "uint256"
        }
      ],
      "name": "ownerOf",
      "outputs": [
        {
          "internalType": "address",
          "name": "",
          "type": "address"
        }
      ],
      "stateMutability": "view",
      "type": "function"
    },
    {
      "inputs": [
        {
          "internalType": "address",
          "name": "from",
          "type": "address"
        },
        {
          "internalType": "address",
          "name": "to",
          "type": "address"
        },
        {
          "internalType": "uint256",
          "name": "tokenId",
          "type": "uint256"
        }
      ],
      "name": "safeTransferFrom",
      "outputs": [],
      "stateMutability": "nonpayable",
      "type": "function"
    },
    {
      "inputs": [
        {
          "internalType": "address",
          "name": "from",
          "type": "address"
        },
        {
          "internalType": "address",
          "name": "to",
          "type": "address"
        },
        {
          "internalType": "uint256",
          "name": "tokenId",
          "type": "uint256"
        },
        {
          "internalType": "bytes",
          "name": "_data",
          "type": "bytes"
        }
      ],
      "name": "safeTransferFrom",
      "outputs": [],
      "stateMutability": "nonpayable",
      "type": "function"
    },
    {
      "inputs": [
        {
          "internalType": "address",
          "name": "operator",
          "type": "address"
        },
        {
          "internalType": "bool",
          "name": "approved",
          "type": "bool"
        }
      ],
      "name": "setApprovalForAll",
      "outputs": [],
      "stateMutability": "nonpayable",
      "type": "function"
    },
    {
      "inputs": [
        {
          "internalType": "bytes4",
          "name": "interfaceId",
          "type": "bytes4"
        }
      ],
      "name": "supportsInterface",
      "outputs": [
        {
          "internalType": "bool",
          "name": "",
          "type": "bool"
        }
      ],
      "stateMutability": "view",
      "type": "function"
    },
    {
      "inputs": [],
      "name": "symbol",
      "outputs": [
        {
          "internalType": "string",
          "name": "",
          "type": "string"
        }
      ],
      "stateMutability": "view",
      "type": "function"
    },
    {
      "inputs": [
        {
          "internalType": "uint256",
          "name": "tokenId",
          "type": "uint256"
        }
      ],
      "name": "tokenURI",
      "outputs": [
        {
          "internalType": "string",
          "name": "",
          "type": "string"
        }
      ],
      "stateMutability": "view",
      "type": "function"
    },
    {
      "inputs": [
        {
          "internalType": "address",
          "name": "from",
          "type": "address"
        },
        {
          "internalType": "address",
          "name": "to",
          "type": "address"
        },
        {
          "internalType": "uint256",
          "name": "tokenId",
          "type": "uint256"
        }
      ],
      "name": "transferFrom",
      "outputs": [],
      "stateMutability": "nonpayable",
      "type": "function"
    }
  ],
  "bytecode": "0x60806040523480156200001157600080fd5b5060405162002bfa38038062002bfa8339818101604052810190620000379190620001e6565b6040518060400160405280600a81526020017f496e74657265704e4654000000000000000000000000000000000000000000008152506040518060400160405280600581526020017f494e5452500000000000000000000000000000000000000000000000000000008152508160009080519060200190620000bb9291906200011f565b508060019080519060200190620000d49291906200011f565b50505080600660006101000a81548173ffffffffffffffffffffffffffffffffffffffff021916908373ffffffffffffffffffffffffffffffffffffffff16021790555050620002c5565b8280546200012d9062000246565b90600052602060002090601f0160209004810192826200015157600085556200019d565b82601f106200016c57805160ff19168380011785556200019d565b828001600101855582156200019d579182015b828111156200019c5782518255916020019190600101906200017f565b5b509050620001ac9190620001b0565b5090565b5b80821115620001cb576000816000905550600101620001b1565b5090565b600081519050620001e081620002ab565b92915050565b600060208284031215620001f957600080fd5b60006200020984828501620001cf565b91505092915050565b60006200021f8262000226565b9050919050565b600073ffffffffffffffffffffffffffffffffffffffff82169050919050565b600060028204905060018216806200025f57607f821691505b602082108114156200027657620002756200027c565b5b50919050565b7f4e487b7100000000000000000000000000000000000000000000000000000000600052602260045260246000fd5b620002b68162000212565b8114620002c257600080fd5b50565b61292580620002d56000396000f3fe608060405234801561001057600080fd5b50600436106100f55760003560e01c80635d0a8dc211610097578063a22cb46511610066578063a22cb46514610284578063b88d4fde146102a0578063c87b56dd146102bc578063e985e9c5146102ec576100f5565b80635d0a8dc2146101e85780636352211e1461020657806370a082311461023657806395d89b4114610266576100f5565b8063095ea7b3116100d3578063095ea7b31461017857806323b872dd14610194578063243d6da2146101b057806342842e0e146101cc576100f5565b806301ffc9a7146100fa57806306fdde031461012a578063081812fc14610148575b600080fd5b610114600480360381019061010f91906119e0565b61031c565b6040516101219190611e33565b60405180910390f35b6101326103fe565b60405161013f9190611e69565b60405180910390f35b610162600480360381019061015d9190611a32565b610490565b60405161016f9190611dcc565b60405180910390f35b610192600480360381019061018d91906119a4565b610515565b005b6101ae60048036038101906101a9919061189e565b61062d565b005b6101ca60048036038101906101c59190611a5b565b61068d565b005b6101e660048036038101906101e1919061189e565b610739565b005b6101f0610759565b6040516101fd9190611e4e565b60405180910390f35b610220600480360381019061021b9190611a32565b61077f565b60405161022d9190611dcc565b60405180910390f35b610250600480360381019061024b9190611839565b610831565b60405161025d919061204b565b60405180910390f35b61026e6108e9565b60405161027b9190611e69565b60405180910390f35b61029e60048036038101906102999190611968565b61097b565b005b6102ba60048036038101906102b591906118ed565b610991565b005b6102d660048036038101906102d19190611a32565b6109f3565b6040516102e39190611e69565b60405180910390f35b61030660048036038101906103019190611862565b610a9a565b6040516103139190611e33565b60405180910390f35b60007f80ac58cd000000000000000000000000000000000000000000000000000000007bffffffffffffffffffffffffffffffffffffffffffffffffffffffff1916827bffffffffffffffffffffffffffffffffffffffffffffffffffffffff191614806103e757507f5b5e139f000000000000000000000000000000000000000000000000000000007bffffffffffffffffffffffffffffffffffffffffffffffffffffffff1916827bffffffffffffffffffffffffffffffffffffffffffffffffffffffff1916145b806103f757506103f682610b2e565b5b9050919050565b60606000805461040d906122f2565b80601f0160208091040260200160405190810160405280929190818152602001828054610439906122f2565b80156104865780601f1061045b57610100808354040283529160200191610486565b820191906000526020600020905b81548152906001019060200180831161046957829003601f168201915b5050505050905090565b600061049b82610b98565b6104da576040517f08c379a00000000000000000000000000000000000000000000000000000000081526004016104d190611fcb565b60405180910390fd5b6004600083815260200190815260200160002060009054906101000a900473ffffffffffffffffffffffffffffffffffffffff169050919050565b60006105208261077f565b90508073ffffffffffffffffffffffffffffffffffffffff168373ffffffffffffffffffffffffffffffffffffffff161415610591576040517f08c379a00000000000000000000000000000000000000000000000000000000081526004016105889061200b565b60405180910390fd5b8073ffffffffffffffffffffffffffffffffffffffff166105b0610c04565b73ffffffffffffffffffffffffffffffffffffffff1614806105df57506105de816105d9610c04565b610a9a565b5b61061e576040517f08c379a000000000000000000000000000000000000000000000000000000000815260040161061590611f4b565b60405180910390fd5b6106288383610c0c565b505050565b61063e610638610c04565b82610cc5565b61067d576040517f08c379a00000000000000000000000000000000000000000000000000000000081526004016106749061202b565b60405180910390fd5b610688838383610da3565b505050565b600660009054906101000a900473ffffffffffffffffffffffffffffffffffffffff1673ffffffffffffffffffffffffffffffffffffffff16636673e84985858588866040518663ffffffff1660e01b81526004016106f0959493929190612066565b600060405180830381600087803b15801561070a57600080fd5b505af115801561071e573d6000803e3d6000fd5b5050505061073361072d610c04565b8361100a565b50505050565b61075483838360405180602001604052806000815250610991565b505050565b600660009054906101000a900473ffffffffffffffffffffffffffffffffffffffff1681565b6000806002600084815260200190815260200160002060009054906101000a900473ffffffffffffffffffffffffffffffffffffffff169050600073ffffffffffffffffffffffffffffffffffffffff168173ffffffffffffffffffffffffffffffffffffffff161415610828576040517f08c379a000000000000000000000000000000000000000000000000000000000815260040161081f90611f8b565b60405180910390fd5b80915050919050565b60008073ffffffffffffffffffffffffffffffffffffffff168273ffffffffffffffffffffffffffffffffffffffff1614156108a2576040517f08c379a000000000000000000000000000000000000000000000000000000000815260040161089990611f6b565b60405180910390fd5b600360008373ffffffffffffffffffffffffffffffffffffffff1673ffffffffffffffffffffffffffffffffffffffff168152602001908152602001600020549050919050565b6060600180546108f8906122f2565b80601f0160208091040260200160405190810160405280929190818152602001828054610924906122f2565b80156109715780601f1061094657610100808354040283529160200191610971565b820191906000526020600020905b81548152906001019060200180831161095457829003601f168201915b5050505050905090565b61098d610986610c04565b83836111e4565b5050565b6109a261099c610c04565b83610cc5565b6109e1576040517f08c379a00000000000000000000000000000000000000000000000000000000081526004016109d89061202b565b60405180910390fd5b6109ed84848484611351565b50505050565b60606109fe82610b98565b610a3d576040517f08c379a0000000000000000000000000000000000000000000000000000000008152600401610a3490611feb565b60405180910390fd5b6000610a476113ad565b90506000815111610a675760405180602001604052806000815250610a92565b80610a71846113c4565b604051602001610a82929190611da8565b6040516020818303038152906040525b915050919050565b6000600560008473ffffffffffffffffffffffffffffffffffffffff1673ffffffffffffffffffffffffffffffffffffffff16815260200190815260200160002060008373ffffffffffffffffffffffffffffffffffffffff1673ffffffffffffffffffffffffffffffffffffffff16815260200190815260200160002060009054906101000a900460ff16905092915050565b60007f01ffc9a7000000000000000000000000000000000000000000000000000000007bffffffffffffffffffffffffffffffffffffffffffffffffffffffff1916827bffffffffffffffffffffffffffffffffffffffffffffffffffffffff1916149050919050565b60008073ffffffffffffffffffffffffffffffffffffffff166002600084815260200190815260200160002060009054906101000a900473ffffffffffffffffffffffffffffffffffffffff1673ffffffffffffffffffffffffffffffffffffffff1614159050919050565b600033905090565b816004600083815260200190815260200160002060006101000a81548173ffffffffffffffffffffffffffffffffffffffff021916908373ffffffffffffffffffffffffffffffffffffffff160217905550808273ffffffffffffffffffffffffffffffffffffffff16610c7f8361077f565b73ffffffffffffffffffffffffffffffffffffffff167f8c5be1e5ebec7d5bd14f71427d1e84f3dd0314c0f7b2291e5b200ac8c7c3b92560405160405180910390a45050565b6000610cd082610b98565b610d0f576040517f08c379a0000000000000000000000000000000000000000000000000000000008152600401610d0690611f2b565b60405180910390fd5b6000610d1a8361077f565b90508073ffffffffffffffffffffffffffffffffffffffff168473ffffffffffffffffffffffffffffffffffffffff161480610d8957508373ffffffffffffffffffffffffffffffffffffffff16610d7184610490565b73ffffffffffffffffffffffffffffffffffffffff16145b80610d9a5750610d998185610a9a565b5b91505092915050565b8273ffffffffffffffffffffffffffffffffffffffff16610dc38261077f565b73ffffffffffffffffffffffffffffffffffffffff1614610e19576040517f08c379a0000000000000000000000000000000000000000000000000000000008152600401610e1090611eab565b60405180910390fd5b600073ffffffffffffffffffffffffffffffffffffffff168273ffffffffffffffffffffffffffffffffffffffff161415610e89576040517f08c379a0000000000000000000000000000000000000000000000000000000008152600401610e8090611eeb565b60405180910390fd5b610e94838383611571565b610e9f600082610c0c565b6001600360008573ffffffffffffffffffffffffffffffffffffffff1673ffffffffffffffffffffffffffffffffffffffff1681526020019081526020016000206000828254610eef91906121da565b925050819055506001600360008473ffffffffffffffffffffffffffffffffffffffff1673ffffffffffffffffffffffffffffffffffffffff1681526020019081526020016000206000828254610f469190612153565b92505081905550816002600083815260200190815260200160002060006101000a81548173ffffffffffffffffffffffffffffffffffffffff021916908373ffffffffffffffffffffffffffffffffffffffff160217905550808273ffffffffffffffffffffffffffffffffffffffff168473ffffffffffffffffffffffffffffffffffffffff167fddf252ad1be2c89b69c2b068fc378daa952ba7f163c4a11628f55a4df523b3ef60405160405180910390a4611005838383611576565b505050565b600073ffffffffffffffffffffffffffffffffffffffff168273ffffffffffffffffffffffffffffffffffffffff16141561107a576040517f08c379a000000000000000000000000000000000000000000000000000000000815260040161107190611fab565b60405180910390fd5b61108381610b98565b156110c3576040517f08c379a00000000000000000000000000000000000000000000000000000000081526004016110ba90611ecb565b60405180910390fd5b6110cf60008383611571565b6001600360008473ffffffffffffffffffffffffffffffffffffffff1673ffffffffffffffffffffffffffffffffffffffff168152602001908152602001600020600082825461111f9190612153565b92505081905550816002600083815260200190815260200160002060006101000a81548173ffffffffffffffffffffffffffffffffffffffff021916908373ffffffffffffffffffffffffffffffffffffffff160217905550808273ffffffffffffffffffffffffffffffffffffffff16600073ffffffffffffffffffffffffffffffffffffffff167fddf252ad1be2c89b69c2b068fc378daa952ba7f163c4a11628f55a4df523b3ef60405160405180910390a46111e060008383611576565b5050565b8173ffffffffffffffffffffffffffffffffffffffff168373ffffffffffffffffffffffffffffffffffffffff161415611253576040517f08c379a000000000000000000000000000000000000000000000000000000000815260040161124a90611f0b565b60405180910390fd5b80600560008573ffffffffffffffffffffffffffffffffffffffff1673ffffffffffffffffffffffffffffffffffffffff16815260200190815260200160002060008473ffffffffffffffffffffffffffffffffffffffff1673ffffffffffffffffffffffffffffffffffffffff16815260200190815260200160002060006101000a81548160ff0219169083151502179055508173ffffffffffffffffffffffffffffffffffffffff168373ffffffffffffffffffffffffffffffffffffffff167f17307eab39ab6107e8899845ad3d59bd9653f200f220920489ca2b5937696c31836040516113449190611e33565b60405180910390a3505050565b61135c848484610da3565b6113688484848461157b565b6113a7576040517f08c379a000000000000000000000000000000000000000000000000000000000815260040161139e90611e8b565b60405180910390fd5b50505050565b606060405180602001604052806000815250905090565b6060600082141561140c576040518060400160405280600181526020017f3000000000000000000000000000000000000000000000000000000000000000815250905061156c565b600082905060005b6000821461143e57808061142790612355565b915050600a8261143791906121a9565b9150611414565b60008167ffffffffffffffff811115611480577f4e487b7100000000000000000000000000000000000000000000000000000000600052604160045260246000fd5b6040519080825280601f01601f1916602001820160405280156114b25781602001600182028036833780820191505090505b5090505b60008514611565576001826114cb91906121da565b9150600a856114da919061239e565b60306114e69190612153565b60f81b818381518110611522577f4e487b7100000000000000000000000000000000000000000000000000000000600052603260045260246000fd5b60200101907effffffffffffffffffffffffffffffffffffffffffffffffffffffffffffff1916908160001a905350600a8561155e91906121a9565b94506114b6565b8093505050505b919050565b505050565b505050565b600061159c8473ffffffffffffffffffffffffffffffffffffffff16611712565b15611705578373ffffffffffffffffffffffffffffffffffffffff1663150b7a026115c5610c04565b8786866040518563ffffffff1660e01b81526004016115e79493929190611de7565b602060405180830381600087803b15801561160157600080fd5b505af192505050801561163257506040513d601f19601f8201168201806040525081019061162f9190611a09565b60015b6116b5573d8060008114611662576040519150601f19603f3d011682016040523d82523d6000602084013e611667565b606091505b506000815114156116ad576040517f08c379a00000000000000000000000000000000000000000000000000000000081526004016116a490611e8b565b60405180910390fd5b805181602001fd5b63150b7a0260e01b7bffffffffffffffffffffffffffffffffffffffffffffffffffffffff1916817bffffffffffffffffffffffffffffffffffffffffffffffffffffffff19161491505061170a565b600190505b949350505050565b6000808273ffffffffffffffffffffffffffffffffffffffff163b119050919050565b6000611748611743846120df565b6120ba565b90508281526020810184848401111561176057600080fd5b61176b8482856122b0565b509392505050565b6000813590506117828161287c565b92915050565b6000819050826020600802820111156117a057600080fd5b92915050565b6000813590506117b581612893565b92915050565b6000813590506117ca816128aa565b92915050565b6000813590506117df816128c1565b92915050565b6000815190506117f4816128c1565b92915050565b600082601f83011261180b57600080fd5b813561181b848260208601611735565b91505092915050565b600081359050611833816128d8565b92915050565b60006020828403121561184b57600080fd5b600061185984828501611773565b91505092915050565b6000806040838503121561187557600080fd5b600061188385828601611773565b925050602061189485828601611773565b9150509250929050565b6000806000606084860312156118b357600080fd5b60006118c186828701611773565b93505060206118d286828701611773565b92505060406118e386828701611824565b9150509250925092565b6000806000806080858703121561190357600080fd5b600061191187828801611773565b945050602061192287828801611773565b935050604061193387828801611824565b925050606085013567ffffffffffffffff81111561195057600080fd5b61195c878288016117fa565b91505092959194509250565b6000806040838503121561197b57600080fd5b600061198985828601611773565b925050602061199a858286016117a6565b9150509250929050565b600080604083850312156119b757600080fd5b60006119c585828601611773565b92505060206119d685828601611824565b9150509250929050565b6000602082840312156119f257600080fd5b6000611a00848285016117d0565b91505092915050565b600060208284031215611a1b57600080fd5b6000611a29848285016117e5565b91505092915050565b600060208284031215611a4457600080fd5b6000611a5284828501611824565b91505092915050565b6000806000806101608587031215611a7257600080fd5b6000611a8087828801611824565b9450506020611a91878288016117bb565b9350506040611aa287828801611824565b9250506060611ab387828801611788565b91505092959194509250565b611ac88161220e565b82525050565b611adb61010083836122b0565b5050565b611ae881612220565b82525050565b611af78161222c565b82525050565b6000611b0882612110565b611b128185612126565b9350611b228185602086016122bf565b611b2b8161248b565b840191505092915050565b611b3f8161228c565b82525050565b6000611b508261211b565b611b5a8185612137565b9350611b6a8185602086016122bf565b611b738161248b565b840191505092915050565b6000611b898261211b565b611b938185612148565b9350611ba38185602086016122bf565b80840191505092915050565b6000611bbc603283612137565b9150611bc78261249c565b604082019050919050565b6000611bdf602583612137565b9150611bea826124eb565b604082019050919050565b6000611c02601c83612137565b9150611c0d8261253a565b602082019050919050565b6000611c25602483612137565b9150611c3082612563565b604082019050919050565b6000611c48601983612137565b9150611c53826125b2565b602082019050919050565b6000611c6b602c83612137565b9150611c76826125db565b604082019050919050565b6000611c8e603883612137565b9150611c998261262a565b604082019050919050565b6000611cb1602a83612137565b9150611cbc82612679565b604082019050919050565b6000611cd4602983612137565b9150611cdf826126c8565b604082019050919050565b6000611cf7602083612137565b9150611d0282612717565b602082019050919050565b6000611d1a602c83612137565b9150611d2582612740565b604082019050919050565b6000611d3d602f83612137565b9150611d488261278f565b604082019050919050565b6000611d60602183612137565b9150611d6b826127de565b604082019050919050565b6000611d83603183612137565b9150611d8e8261282d565b604082019050919050565b611da281612282565b82525050565b6000611db48285611b7e565b9150611dc08284611b7e565b91508190509392505050565b6000602082019050611de16000830184611abf565b92915050565b6000608082019050611dfc6000830187611abf565b611e096020830186611abf565b611e166040830185611d99565b8181036060830152611e288184611afd565b905095945050505050565b6000602082019050611e486000830184611adf565b92915050565b6000602082019050611e636000830184611b36565b92915050565b60006020820190508181036000830152611e838184611b45565b905092915050565b60006020820190508181036000830152611ea481611baf565b9050919050565b60006020820190508181036000830152611ec481611bd2565b9050919050565b60006020820190508181036000830152611ee481611bf5565b9050919050565b60006020820190508181036000830152611f0481611c18565b9050919050565b60006020820190508181036000830152611f2481611c3b565b9050919050565b60006020820190508181036000830152611f4481611c5e565b9050919050565b60006020820190508181036000830152611f6481611c81565b9050919050565b60006020820190508181036000830152611f8481611ca4565b9050919050565b60006020820190508181036000830152611fa481611cc7565b9050919050565b60006020820190508181036000830152611fc481611cea565b9050919050565b60006020820190508181036000830152611fe481611d0d565b9050919050565b6000602082019050818103600083015261200481611d30565b9050919050565b6000602082019050818103600083015261202481611d53565b9050919050565b6000602082019050818103600083015261204481611d76565b9050919050565b60006020820190506120606000830184611d99565b92915050565b60006101808201905061207c6000830188611d99565b6120896020830187611aee565b6120966040830186611d99565b6120a36060830185611d99565b6120b06080830184611ace565b9695505050505050565b60006120c46120d5565b90506120d08282612324565b919050565b6000604051905090565b600067ffffffffffffffff8211156120fa576120f961245c565b5b6121038261248b565b9050602081019050919050565b600081519050919050565b600081519050919050565b600082825260208201905092915050565b600082825260208201905092915050565b600081905092915050565b600061215e82612282565b915061216983612282565b9250827fffffffffffffffffffffffffffffffffffffffffffffffffffffffffffffffff0382111561219e5761219d6123cf565b5b828201905092915050565b60006121b482612282565b91506121bf83612282565b9250826121cf576121ce6123fe565b5b828204905092915050565b60006121e582612282565b91506121f083612282565b925082821015612203576122026123cf565b5b828203905092915050565b600061221982612262565b9050919050565b60008115159050919050565b6000819050919050565b60007fffffffff0000000000000000000000000000000000000000000000000000000082169050919050565b600073ffffffffffffffffffffffffffffffffffffffff82169050919050565b6000819050919050565b60006122978261229e565b9050919050565b60006122a982612262565b9050919050565b82818337600083830152505050565b60005b838110156122dd5780820151818401526020810190506122c2565b838111156122ec576000848401525b50505050565b6000600282049050600182168061230a57607f821691505b6020821081141561231e5761231d61242d565b5b50919050565b61232d8261248b565b810181811067ffffffffffffffff8211171561234c5761234b61245c565b5b80604052505050565b600061236082612282565b91507fffffffffffffffffffffffffffffffffffffffffffffffffffffffffffffffff821415612393576123926123cf565b5b600182019050919050565b60006123a982612282565b91506123b483612282565b9250826123c4576123c36123fe565b5b828206905092915050565b7f4e487b7100000000000000000000000000000000000000000000000000000000600052601160045260246000fd5b7f4e487b7100000000000000000000000000000000000000000000000000000000600052601260045260246000fd5b7f4e487b7100000000000000000000000000000000000000000000000000000000600052602260045260246000fd5b7f4e487b7100000000000000000000000000000000000000000000000000000000600052604160045260246000fd5b6000601f19601f8301169050919050565b7f4552433732313a207472616e7366657220746f206e6f6e20455243373231526560008201527f63656976657220696d706c656d656e7465720000000000000000000000000000602082015250565b7f4552433732313a207472616e736665722066726f6d20696e636f72726563742060008201527f6f776e6572000000000000000000000000000000000000000000000000000000602082015250565b7f4552433732313a20746f6b656e20616c7265616479206d696e74656400000000600082015250565b7f4552433732313a207472616e7366657220746f20746865207a65726f2061646460008201527f7265737300000000000000000000000000000000000000000000000000000000602082015250565b7f4552433732313a20617070726f766520746f2063616c6c657200000000000000600082015250565b7f4552433732313a206f70657261746f7220717565727920666f72206e6f6e657860008201527f697374656e7420746f6b656e0000000000000000000000000000000000000000602082015250565b7f4552433732313a20617070726f76652063616c6c6572206973206e6f74206f7760008201527f6e6572206e6f7220617070726f76656420666f7220616c6c0000000000000000602082015250565b7f4552433732313a2062616c616e636520717565727920666f7220746865207a6560008201527f726f206164647265737300000000000000000000000000000000000000000000602082015250565b7f4552433732313a206f776e657220717565727920666f72206e6f6e657869737460008201527f656e7420746f6b656e0000000000000000000000000000000000000000000000602082015250565b7f4552433732313a206d696e7420746f20746865207a65726f2061646472657373600082015250565b7f4552433732313a20617070726f76656420717565727920666f72206e6f6e657860008201527f697374656e7420746f6b656e0000000000000000000000000000000000000000602082015250565b7f4552433732314d657461646174613a2055524920717565727920666f72206e6f60008201527f6e6578697374656e7420746f6b656e0000000000000000000000000000000000602082015250565b7f4552433732313a20617070726f76616c20746f2063757272656e74206f776e6560008201527f7200000000000000000000000000000000000000000000000000000000000000602082015250565b7f4552433732313a207472616e736665722063616c6c6572206973206e6f74206f60008201527f776e6572206e6f7220617070726f766564000000000000000000000000000000602082015250565b6128858161220e565b811461289057600080fd5b50565b61289c81612220565b81146128a757600080fd5b50565b6128b38161222c565b81146128be57600080fd5b50565b6128ca81612236565b81146128d557600080fd5b50565b6128e181612282565b81146128ec57600080fd5b5056fea2646970667358221220499ea9ea227dc648f476dc46149ff2936ff382b4208b591285be335c3f1b21f564736f6c63430008040033",
  "linkReferences": {},
  "deployedLinkReferences": {}
}